{
  "contractName": "Adoption",
  "abi": [
    {
      "constant": false,
      "inputs": [
        {
          "name": "_id",
          "type": "uint256"
        }
      ],
      "name": "setAdopters",
      "outputs": [
        {
          "name": "",
          "type": "uint256"
        }
      ],
      "payable": false,
      "stateMutability": "nonpayable",
      "type": "function"
    },
    {
      "constant": false,
      "inputs": [
        {
          "name": "_id",
          "type": "uint256"
        }
      ],
      "name": "revertOwnership",
      "outputs": [
        {
          "name": "",
          "type": "uint256"
        }
      ],
      "payable": false,
      "stateMutability": "nonpayable",
      "type": "function"
    },
    {
      "constant": true,
      "inputs": [],
      "name": "getAdopters",
      "outputs": [
        {
          "name": "",
          "type": "address[16]"
        }
      ],
      "payable": false,
      "stateMutability": "view",
      "type": "function"
    }
  ],
  "bytecode": "0x608060405234801561001057600080fd5b506102e2806100206000396000f3fe608060405260043610610051576000357c0100000000000000000000000000000000000000000000000000000000900480633de4eb171461005657806370c5fc8d146100a95780639a087d29146100f8575b600080fd5b34801561006257600080fd5b5061006b610147565b6040518082601060200280838360005b8381101561009657808201518184015260208101905061007b565b5050505090500191505060405180910390f35b3480156100b557600080fd5b506100e2600480360360208110156100cc57600080fd5b81019080803590602001909291905050506101c8565b6040518082815260200191505060405180910390f35b34801561010457600080fd5b506101316004803603602081101561011b57600080fd5b810190808035906020019092919050505061022d565b6040518082815260200191505060405180910390f35b61014f610292565b60006010806020026040519081016040528092919082601080156101be576020028201915b8160009054906101000a900473ffffffffffffffffffffffffffffffffffffffff1673ffffffffffffffffffffffffffffffffffffffff1681526020019060010190808311610174575b5050505050905090565b60008082101515156101d657fe5b336000836010811015156101e657fe5b0160006101000a81548173ffffffffffffffffffffffffffffffffffffffff021916908373ffffffffffffffffffffffffffffffffffffffff160217905550819050919050565b600080821015151561023b57fe5b6000808360108110151561024b57fe5b0160006101000a81548173ffffffffffffffffffffffffffffffffffffffff021916908373ffffffffffffffffffffffffffffffffffffffff160217905550819050919050565b6102006040519081016040528060109060208202803883398082019150509050509056fea165627a7a72305820747aceed3f5634754d15c8fdf8efc5b993ac992286585254b16d3b7e5846686a0029",
  "source": "// SPDX-License-Identifier: MIT\npragma solidity >=0.4.22 <0.9.0;\n\ncontract Adoption {\n  address[16] adopters;\n\n  function setAdopters(uint _id) public returns (uint) {\n    assert(_id >= 0);\n\n    adopters[_id] = msg.sender;\n\n    return _id;\n  }\n\n  function revertOwnership(uint _id) public returns (uint) {\n    assert(_id >= 0);\n\n    adopters[_id] = address(0x0000000000000000000000000000000000000000);\n\n    return _id;\n  }\n\n  function getAdopters() public view returns (address[16] memory){\n    return adopters;\n  }\n\n}",
  "sourcePath": "C:\\xampp\\htdocs\\e-voting\\backend\\contracts\\Adoption.sol",
  "compiler": {
    "name": "solc",
    "version": "0.5.1+commit.c8a2cb62.Emscripten.clang"
  },
  "schemaVersion": "3.4.16",
  "updatedAt": "2024-01-03T07:53:19.598Z",
  "networkType": "ethereum",
  "devdoc": {
    "methods": {}
  },
  "userdoc": {
    "methods": {}
  }
}