{
  "contractName": "Voting",
  "abi": [
    {
      "constant": true,
      "inputs": [],
      "name": "totalVotes",
      "outputs": [
        {
          "name": "",
          "type": "uint256"
        }
      ],
      "payable": false,
      "stateMutability": "view",
      "type": "function"
    },
    {
      "constant": true,
      "inputs": [
        {
          "name": "",
          "type": "uint256"
        }
      ],
      "name": "votes",
      "outputs": [
        {
          "name": "candidate",
          "type": "string"
        },
        {
          "name": "votes",
          "type": "uint256"
        }
      ],
      "payable": false,
      "stateMutability": "view",
      "type": "function"
    },
    {
      "constant": false,
      "inputs": [
        {
          "name": "_candidate",
          "type": "string"
        }
      ],
      "name": "addVote",
      "outputs": [
        {
          "name": "",
          "type": "string"
        }
      ],
      "payable": false,
      "stateMutability": "nonpayable",
      "type": "function"
    },
    {
      "constant": true,
      "inputs": [],
      "name": "getVotes",
      "outputs": [
        {
          "components": [
            {
              "name": "candidate",
              "type": "string"
            },
            {
              "name": "votes",
              "type": "uint256"
            }
          ],
          "name": "",
          "type": "tuple[]"
        }
      ],
      "payable": false,
      "stateMutability": "view",
      "type": "function"
    },
    {
      "constant": false,
      "inputs": [
        {
          "name": "_id",
          "type": "uint256"
        }
      ],
      "name": "vote",
      "outputs": [
        {
          "name": "",
          "type": "uint256"
        }
      ],
      "payable": false,
      "stateMutability": "nonpayable",
      "type": "function"
    }
  ],
  "bytecode": "0x608060405234801561001057600080fd5b50610962806100206000396000f3fe608060405260043610610067576000357c0100000000000000000000000000000000000000000000000000000000900480630121b93f1461006c5780630d15fd77146100a95780630dc96015146100d45780635df81330146100ff5780639192f1c81461013d575b600080fd5b34801561007857600080fd5b50610093600480360361008e91908101906105f8565b61017a565b6040516100a09190610812565b60405180910390f35b3480156100b557600080fd5b506100be6101ef565b6040516100cb9190610812565b60405180910390f35b3480156100e057600080fd5b506100e96101f5565b6040516100f6919061077e565b60405180910390f35b34801561010b57600080fd5b50610126600480360361012191908101906105f8565b610340565b6040516101349291906107c2565b60405180910390f35b34801561014957600080fd5b50610164600480360361015f91908101906105b7565b6103fc565b60405161017191906107a0565b60405180910390f35b6000600154821015156101c2576040517f08c379a00000000000000000000000000000000000000000000000000000000081526004016101b9906107f2565b60405180910390fd5b60008083815260200190815260200160002060010160008154809291906001019190505550819050919050565b60015481565b60608060015460405190808252806020026020018201604052801561023457816020015b610221610474565b8152602001906001900390816102195790505b50905060008090505b60015481101561033857600080828152602001908152602001600020604080519081016040529081600082018054600181600116156101000203166002900480601f0160208091040260200160405190810160405280929190818152602001828054600181600116156101000203166002900480156102fd5780601f106102d2576101008083540402835291602001916102fd565b820191906000526020600020905b8154815290600101906020018083116102e057829003601f168201915b50505050508152602001600182015481525050828281518110151561031e57fe5b90602001906020020181905250808060010191505061023d565b508091505090565b6000602052806000526040600020600091509050806000018054600181600116156101000203166002900480601f0160208091040260200160405190810160405280929190818152602001828054600181600116156101000203166002900480156103ec5780601f106103c1576101008083540402835291602001916103ec565b820191906000526020600020905b8154815290600101906020018083116103cf57829003601f168201915b5050505050908060010154905082565b606061040661048e565b8281600001819052506000816020018181525050806000806001548152602001908152602001600020600082015181600001908051906020019061044b9291906104a8565b506020820151816001015590505060016000815480929190600101919050555082915050919050565b604080519081016040528060608152602001600081525090565b604080519081016040528060608152602001600081525090565b828054600181600116156101000203166002900490600052602060002090601f016020900481019282601f106104e957805160ff1916838001178555610517565b82800160010185558215610517579182015b828111156105165782518255916020019190600101906104fb565b5b5090506105249190610528565b5090565b61054a91905b8082111561054657600081600090555060010161052e565b5090565b90565b600082601f830112151561056057600080fd5b813561057361056e8261085a565b61082d565b9150808252602083016020830185838301111561058f57600080fd5b61059a8382846108d5565b50505092915050565b60006105af82356108cb565b905092915050565b6000602082840312156105c957600080fd5b600082013567ffffffffffffffff8111156105e357600080fd5b6105ef8482850161054d565b91505092915050565b60006020828403121561060a57600080fd5b6000610618848285016105a3565b91505092915050565b600061062c82610893565b8084526020840193508360208202850161064585610886565b60005b8481101561067e578383038852610660838351610732565b925061066b826108b4565b9150602088019750600181019050610648565b508196508694505050505092915050565b600061069a826108a9565b8084526106ae8160208601602086016108e4565b6106b781610917565b602085010191505092915050565b60006106d08261089e565b8084526106e48160208601602086016108e4565b6106ed81610917565b602085010191505092915050565b6000601482527f496e76616c69642063616e6469646174652049440000000000000000000000006020830152604082019050919050565b6000604083016000830151848203600086015261074f82826106c5565b9150506020830151610764602086018261076f565b508091505092915050565b610778816108c1565b82525050565b600060208201905081810360008301526107988184610621565b905092915050565b600060208201905081810360008301526107ba818461068f565b905092915050565b600060408201905081810360008301526107dc81856106c5565b90506107eb602083018461076f565b9392505050565b6000602082019050818103600083015261080b816106fb565b9050919050565b6000602082019050610827600083018461076f565b92915050565b6000604051905081810181811067ffffffffffffffff8211171561085057600080fd5b8060405250919050565b600067ffffffffffffffff82111561087157600080fd5b601f19601f8301169050602081019050919050565b6000602082019050919050565b600081519050919050565b600081519050919050565b600081519050919050565b6000602082019050919050565b6000819050919050565b6000819050919050565b82818337600083830152505050565b60005b838110156109025780820151818401526020810190506108e7565b83811115610911576000848401525b50505050565b6000601f19601f830116905091905056fea265627a7a7230582003c86fbaad7f8e4e543da3cd32b08926feee03db42cf94b77477ca5b419069676c6578706572696d656e74616cf50037",
  "source": "// SPDX-License-Identifier: MIT\npragma solidity >=0.4.22 <0.9.0;\npragma experimental ABIEncoderV2;\n\ncontract Voting {\n  struct VotingData {\n    string candidate;\n    uint votes;\n  }\n\n  mapping(uint => VotingData) public votes;\n  uint public totalVotes;\n\n  function addVote(string memory _candidate) public returns (string memory) {\n    VotingData memory newVote;\n    newVote.candidate = _candidate;\n    newVote.votes = 0;\n\n    votes[totalVotes] = newVote;\n    totalVotes++;\n\n    return _candidate;\n  }\n\n  function getVotes() public view returns (VotingData[] memory) {\n    VotingData[] memory result = new VotingData[](totalVotes);\n    for (uint i = 0; i < totalVotes; i++) {\n      result[i] = votes[i];\n    }\n    return result;\n  }\n\n  function vote(uint _id) public returns (uint) {\n    require(_id < totalVotes, \"Invalid candidate ID\");\n\n    votes[_id].votes++;\n\n    return _id;\n  }\n}",
  "sourcePath": "C:\\xampp\\htdocs\\e-voting\\backend\\contracts\\Voting.sol",
  "compiler": {
    "name": "solc",
    "version": "0.5.1+commit.c8a2cb62.Emscripten.clang"
  },
  "schemaVersion": "3.4.16",
  "updatedAt": "2024-01-03T05:23:54.029Z",
  "networkType": "ethereum",
  "devdoc": {
    "methods": {}
  },
  "userdoc": {
    "methods": {}
  }
}