{
  "contractName": "Voting",
  "abi": [
    {
      "constant": true,
      "inputs": [
        {
          "name": "",
          "type": "uint256"
        }
      ],
      "name": "voting",
      "outputs": [
        {
          "name": "id",
          "type": "uint256"
        },
        {
          "name": "name",
          "type": "string"
        },
        {
          "name": "picture",
          "type": "string"
        }
      ],
      "payable": false,
      "stateMutability": "view",
      "type": "function"
    },
    {
      "constant": false,
      "inputs": [
        {
          "name": "_name",
          "type": "string"
        },
        {
          "name": "_picture",
          "type": "string"
        }
      ],
      "name": "addVoting",
      "outputs": [
        {
          "name": "",
          "type": "string"
        }
      ],
      "payable": false,
      "stateMutability": "nonpayable",
      "type": "function"
    },
    {
      "constant": true,
      "inputs": [],
      "name": "getVoting",
      "outputs": [
        {
          "components": [
            {
              "name": "id",
              "type": "uint256"
            },
            {
              "name": "name",
              "type": "string"
            },
            {
              "name": "picture",
              "type": "string"
            }
          ],
          "name": "",
          "type": "tuple[]"
        }
      ],
      "payable": false,
      "stateMutability": "view",
      "type": "function"
    },
    {
      "constant": false,
      "inputs": [
        {
          "name": "_id",
          "type": "uint256"
        }
      ],
      "name": "deleteVotingById",
      "outputs": [
        {
          "name": "",
          "type": "uint256"
        }
      ],
      "payable": false,
      "stateMutability": "nonpayable",
      "type": "function"
    }
  ],
  "bytecode": "0x6080604052600060015534801561001557600080fd5b50610a8d806100256000396000f3fe60806040526004361061005c576000357c0100000000000000000000000000000000000000000000000000000000900480631986d3761461006157806398bb94e91461008c578063de3329b4146100c9578063fd4a77f114610106575b600080fd5b34801561006d57600080fd5b50610076610145565b60405161008391906108b4565b60405180910390f35b34801561009857600080fd5b506100b360048036036100ae91908101906106df565b6102f3565b6040516100c091906108d6565b60405180910390f35b3480156100d557600080fd5b506100f060048036036100eb919081019061074b565b6103ac565b6040516100fd91906108f8565b60405180910390f35b34801561011257600080fd5b5061012d6004803603610128919081019061074b565b6103fd565b60405161013c93929190610913565b60405180910390f35b60606000805480602002602001604051908101604052809291908181526020016000905b828210156102ea57838290600052602060002090600302016060604051908101604052908160008201548152602001600182018054600181600116156101000203166002900480601f0160208091040260200160405190810160405280929190818152602001828054600181600116156101000203166002900480156102305780601f1061020557610100808354040283529160200191610230565b820191906000526020600020905b81548152906001019060200180831161021357829003601f168201915b50505050508152602001600282018054600181600116156101000203166002900480601f0160208091040260200160405190810160405280929190818152602001828054600181600116156101000203166002900480156102d25780601f106102a7576101008083540402835291602001916102d2565b820191906000526020600020905b8154815290600101906020018083116102b557829003601f168201915b50505050508152505081526020019060010190610169565b50505050905090565b60606102fd610566565b6001548160000181815250508381602001819052508281604001819052506000819080600181540180825580915050906001820390600052602060002090600302016000909192909190915060008201518160000155602082015181600101908051906020019061036f929190610588565b50604082015181600201908051906020019061038c929190610588565b505050506001600081548092919060010191905055508391505092915050565b600080828154811015156103bc57fe5b90600052602060002090600302016000808201600090556001820160006103e39190610608565b6002820160006103f39190610608565b5050819050919050565b60008181548110151561040c57fe5b9060005260206000209060030201600091509050806000015490806001018054600181600116156101000203166002900480601f0160208091040260200160405190810160405280929190818152602001828054600181600116156101000203166002900480156104be5780601f10610493576101008083540402835291602001916104be565b820191906000526020600020905b8154815290600101906020018083116104a157829003601f168201915b505050505090806002018054600181600116156101000203166002900480601f01602080910402602001604051908101604052809291908181526020018280546001816001161561010002031660029004801561055c5780601f106105315761010080835404028352916020019161055c565b820191906000526020600020905b81548152906001019060200180831161053f57829003601f168201915b5050505050905083565b6060604051908101604052806000815260200160608152602001606081525090565b828054600181600116156101000203166002900490600052602060002090601f016020900481019282601f106105c957805160ff19168380011785556105f7565b828001600101855582156105f7579182015b828111156105f65782518255916020019190600101906105db565b5b5090506106049190610650565b5090565b50805460018160011615610100020316600290046000825580601f1061062e575061064d565b601f01602090049060005260206000209081019061064c9190610650565b5b50565b61067291905b8082111561066e576000816000905550600101610656565b5090565b90565b600082601f830112151561068857600080fd5b813561069b61069682610985565b610958565b915080825260208301602083018583830111156106b757600080fd5b6106c2838284610a00565b50505092915050565b60006106d782356109f6565b905092915050565b600080604083850312156106f257600080fd5b600083013567ffffffffffffffff81111561070c57600080fd5b61071885828601610675565b925050602083013567ffffffffffffffff81111561073557600080fd5b61074185828601610675565b9150509250929050565b60006020828403121561075d57600080fd5b600061076b848285016106cb565b91505092915050565b600061077f826109be565b80845260208401935083602082028501610798856109b1565b60005b848110156107d15783830388526107b383835161084e565b92506107be826109df565b915060208801975060018101905061079b565b508196508694505050505092915050565b60006107ed826109d4565b808452610801816020860160208601610a0f565b61080a81610a42565b602085010191505092915050565b6000610823826109c9565b808452610837816020860160208601610a0f565b61084081610a42565b602085010191505092915050565b600060608301600083015161086660008601826108a5565b506020830151848203602086015261087e8282610818565b915050604083015184820360408601526108988282610818565b9150508091505092915050565b6108ae816109ec565b82525050565b600060208201905081810360008301526108ce8184610774565b905092915050565b600060208201905081810360008301526108f081846107e2565b905092915050565b600060208201905061090d60008301846108a5565b92915050565b600060608201905061092860008301866108a5565b818103602083015261093a8185610818565b9050818103604083015261094e8184610818565b9050949350505050565b6000604051905081810181811067ffffffffffffffff8211171561097b57600080fd5b8060405250919050565b600067ffffffffffffffff82111561099c57600080fd5b601f19601f8301169050602081019050919050565b6000602082019050919050565b600081519050919050565b600081519050919050565b600081519050919050565b6000602082019050919050565b6000819050919050565b6000819050919050565b82818337600083830152505050565b60005b83811015610a2d578082015181840152602081019050610a12565b83811115610a3c576000848401525b50505050565b6000601f19601f830116905091905056fea265627a7a72305820d74059d8799712fd2e365048da9d297685584817524c293fb8080c9b93850de26c6578706572696d656e74616cf50037",
  "source": "// SPDX-License-Identifier: MIT\npragma solidity >=0.4.22 <0.9.0;\npragma experimental ABIEncoderV2;\n\ncontract Voting {\n  struct votingData{\n    uint id;\n    string name;\n    string picture;\n  }\n\n  votingData[] public voting;\n  uint counter_id = 0;\n\n  function addVoting(string memory _name, string memory _picture) public returns (string memory) {\n    votingData memory inData;\n\n    inData.id = counter_id;\n    inData.name = _name;\n    inData.picture = _picture;\n\n    voting.push(inData);\n\n    counter_id++;\n\n    return _name;\n  }\n\n  function getVoting() public view returns (votingData[] memory) {\n    return voting;\n  }\n\n  function deleteVotingById(uint _id) public returns (uint){\n    delete voting[_id];\n\n    return _id;\n  }\n}\n",
  "sourcePath": "C:\\xampp\\htdocs\\e-voting\\backend\\contracts\\Voting.sol",
  "compiler": {
    "name": "solc",
    "version": "0.5.1+commit.c8a2cb62.Emscripten.clang"
  },
  "schemaVersion": "3.4.16",
  "updatedAt": "2024-01-03T07:53:20.533Z",
  "networkType": "ethereum",
  "devdoc": {
    "methods": {}
  },
  "userdoc": {
    "methods": {}
  }
}